:020000040800F2
:1000000000280020890F0008190F00081F0F0008A2
:10001000250F00082B0F0008310F0008000000001A
:10002000000000000000000000000000370F000882
:10003000430F0008000000004F0F00085B0F00088E
:10004000D10F0008D10F0008D10F0008D10F000810
:10005000D10F0008D10F0008D10F0008D10F000800
:10006000D10F0008D10F0008D10F0008D10F0008F0
:10007000D10F0008D10F0008D10F0008D10F0008E0
:10008000D10F0008D10F0008D10F0008D10F0008D0
:10009000D10F0008D10F0008D10F0008D10F0008C0
:1000A000D10F0008D10F0008D10F0008D10F0008B0
:1000B000690F0008D10F000800000000D10F0008F0
:1000C000D10F00080000000000000000D10F000860
:1000D00000000000D10F0008D10F00080000000050
:1000E000D10F0008D10F0008D10F00080000000058
:1000F0000000000000000000000000000000000000
:0C01000000000000000000005FF808F1A3
:10010C0010B5054C237833B9044B13B10448AFF345
:10011C0000800123237010BD74000020000000003B
:10012C001826000808B5034B1BB103490348AFF36D
:10013C00008008BD00000000780000201826000890
:10014C0080B500AFA34B1B68013B132B00F2DA8286
:10015C0001A252F823F000BFB5010008C901000844
:10016C007D0200082B030008050400081107000895
:10017C00110700081107000811070008B304000854
:10018C0047050008DD0500081107000811070008E5
:10019C0011070008110700081107000811070008D3
:1001AC0011070008DD0600088A4B02221A608A4BF0
:1001BC001B680021184600F005FEB4E2874B1B6853
:1001CC00874A126802FB03F3864A1360834B1B6851
:1001DC00834A126802FB03F2834B1B681344834A65
:1001EC00136000F063FC01221021814801F0EDF94D
:1001FC00002220217E4801F0E8F9002240217C48B1
:10020C0001F0E3F900228021794801F0DEF90022A7
:10021C004FF48071764801F0D8F901224FF4007147
:10022C00734801F0D2F9734B1B68012B08D1694B51
:10023C0003221A606C4B1B680021184600F0C2FDAB
:10024C00002000F08DFA0346002B00F05D82614B1C
:10025C000A221A6000F04CFC644B00221A60614BBD
:10026C0000221A6000214FF4FA7000F0ABFD4BE253
:10027C005A4B1B685A4A126802FB03F3594A136023
:10028C00564B1B68564A126802FB03F3574A13601D
:10029C0000F00CFC01221021554801F096F90022C7
:1002AC002021534801F091F900224021504801F0DF
:1002BC008CF9002280214E4801F087F901224FF47D
:1002CC0080714B4801F081F900224FF400714848CD
:1002DC0001F07BF9474B1B68012B08D13D4B0422E5
:1002EC001A603D4B1B680021184600F06BFD002086
:1002FC0000F036FA0346002B00F00882354B0A2238
:10030C001A6000F0F5FB394B00221A60354B0022C5
:10031C001A6000214FF4FA7000F054FDF6E12F4BF7
:10032C001B682F4A126802FB03F22F4B1B68134405
:10033C002C4A1360294B1B68294A126802FB03F3F1
:10034C002A4A136000F0B2FB00221021284801F069
:10035C003CF900222021264801F037F901224021E6
:10036C00234801F032F901228021214801F02DF9B6
:10037C0000224FF480711E4801F027F900224FF43F
:10038C0000711B4801F021F91A4B1B68012B08D195
:10039C00104B05221A60144B1B680021184600F004
:1003AC0011FD002000F0DCF90346002B00F0B081B9
:1003BC00084B0A221A6000F09BFB0C4B00221A60BF
:1003CC00084B00221A6000214FF4FA7000F0FAFC7E
:1003DC009EE100BF9000002000000020B000002033
:1003EC00A400002054000020040000205000002035
:1003FC0000080140A8000020A74B1B68A74A126800
:10040C0002FB03F3A64A1360A34B1B68A34A1268B2
:10041C0002FB03F3A34A136000F048FB00221021F7
:10042C00A14801F0D2F8012220219F4801F0CDF81B
:10043C00002240219C4801F0C8F8012280219A48F2
:10044C0001F0C3F800224FF48071974801F0BDF819
:10045C0000224FF40071944801F0B7F8934B1B68DD
:10046C00012B08D1924B02221A60924B1B6800217F
:10047C00184600F0A7FC002000F072F90346002B90
:10048C0000F048818A4B0A221A6000F031FB854B40
:10049C0000221A60824B00221A6000214FF4FA707D
:1004AC0000F090FC36E100F001FB012000F058F95F
:1004BC000346002B0ED07B4B1B687F4A934203DD17
:1004CC00784B00221A6005E0764B1B6803F57A73B3
:1004DC00744A1360022000F043F90346002B03D04A
:1004EC00704B1B68754A1360704B1B68012B0CD149
:1004FC0010216D4801F081F880216B4801F07DF8E6
:10050C0000214FF4FA7000F05DFC002000F028F997
:10051C000346002B00F00081654B0B221A6000F0A3
:10052C00E7FA604B00221A605D4B00221A60002132
:10053C004FF4FA7000F046FCEEE000F0B7FA012040
:10054C0000F00EF90346002B0ED0564B1B685A4A8E
:10055C00934203DD534B00221A6005E0514B1B689C
:10056C0003F57A734F4A1360022000F0F9F8034642
:10057C00002B03D04B4B1B68514A13604B4B1B6831
:10058C00012B0DD12021484801F037F84FF4807130
:10059C00454801F032F800214FF4FA7000F012FCDB
:1005AC00002000F0DDF80346002B00F0B780404B34
:1005BC000C221A6000F09CFA3A4B00221A60384B5D
:1005CC0000221A6000214FF4FA7000F0FBFBA5E04A
:1005DC0000F06CFA012000F0C3F80346002B0ED09B
:1005EC00304B1B68344A934203DD2E4B00221A60B9
:1005FC0005E02C4B1B6803F57A732A4A1360022022
:10060C0000F0AEF80346002B21D0264B1B682D4A78
:10061C0013602C4B1A682A4B1B681A44274B1B6817
:10062C009A4208D0224B14221A6000214FF4FA602F
:10063C0000F0C8FB0BE0234B1B681E4A13601F4BDA
:10064C001B68214A13601E4B1B68204A1360174B12
:10065C001B68012B0DD14021134800F0CEFF4FF445
:10066C000071114800F0C9FF00214FF4FA7000F03E
:10067C00A9FB002000F074F80346002B50D00C4B63
:10068C0002221A6000F034FA0A4B1B68002118464B
:10069C0000F098FB44E000BFB0000020A400002054
:1006AC00540000205000002000080140A800002049
:1006BC009000002000000020B8820100B80000204B
:1006CC00C0000020BC000020080000200400002016
:1006DC00164B00221A60164B00221A6000F0E6F945
:1006EC0000F02CFA134B1B68002B1BD0124B022270
:1006FC001A6000F0FDF9114B1B680021184600F040
:10070C0061FB0FE000BF0EE000BF0CE000BF0AE091
:10071C0000BF08E000BF06E000BF04E000BF02E03D
:10072C0000BF00E000BF00BF80BD00BF5000002034
:10073C0054000020A80000209000002000000020A1
:10074C0080B483B000AF7860044A7B68012142F822
:10075C00231000BF0C37BD4680BC704794000020AE
:10076C0080B483B000AF7860094A7B6852F82330BC
:10077C00012B06D1064A7B68002142F82310012385
:10078C0000E0002318460C37BD4680BC704700BF04
:10079C009400002080B582B000AF00237B6073E032
:1007AC003D4A7B6852F823203C497B6841F8232062
:1007BC003B4A7B6852F8232037497B6841F8232059
:1007CC0002227B6802FA03F39BB21946354800F00B
:1007DC00E5FE03461946324A7B6842F823102E4A3E
:1007EC007B6852F823202E497B6851F823309A42BB
:1007FC0047D1294A7B6852F8232028497B6851F855
:10080C0023309A423DD1254A7B6852F82320264951
:10081C007B6851F823309A4219D0204A7B6852F8F1
:10082C00232021497B6841F823201F4A7B6852F81A
:10083C002330002B25D11D4B1A681D4B1B6892FBD6
:10084C00F3F31C4A13607868FFF77AFF19E0194B31
:10085C001B68013B174A1360164B1B68002B10D109
:10086C00154B1A68124B1B6892FBF3F3114A136079
:10087C000D4A7B6852F82330002B02D17868FFF7C1
:10088C005FFF7B6801337B607B68022B88DD00BFD8
:10089C0000BF0837BD4680BD180000202400002092
:1008AC000C00002000080140300000203C0000201B
:1008BC00A4000020C40000204000002080B483B0BD
:1008CC0000AF7860054A7B6813441A78044BDA60F1
:1008DC0000BF0C37BD4680BC704700BF44000020F1
:1008EC00000C014080B582B000AF78607B68032BB0
:1008FC0000F2848001A252F823F000BF190900080D
:10090C005509000891090008CD09000800224FF490
:10091C0080613D4800F059FE01224FF400613A48D5
:10092C0000F053FE01224FF48051374800F04DFE89
:10093C0001224FF40051344800F047FE334B1B6842
:10094C001846FFF7BBFF5AE001224FF480612E4896
:10095C0000F03BFE00224FF400612B4800F035FE06
:10096C0001224FF48051284800F02FFE01224FF451
:10097C000051254800F029FE244B5B681846FFF710
:10098C009DFF3CE001224FF480611F4800F01DFEEA
:10099C0001224FF400611C4800F017FE00224FF4B6
:1009AC008051194800F011FE01224FF400511648F5
:1009BC0000F00BFE154B9B681846FFF77FFF1EE0FF
:1009CC0001224FF48061104800F0FFFD01224FF42A
:1009DC0000610D4800F0F9FD01224FF480510A48E6
:1009EC0000F0F3FD00224FF40051074800F0EDFD3C
:1009FC00064BDB681846FFF761FF00E000BF00BF45
:100A0C000837BD4680BD00BF0008014058000020DB
:100A1C0080B400AF204B1B68204A82FB03121213D8
:100A2C00DB17D31A1E4A13601B4B1A681B4B83FB34
:100A3C0002131913D317CB1A42F2107101FB03F3F3
:100A4C00D31A184A82FB03129211DB17D31A144AD9
:100A5C005360154B1B68114A82FB03121213DB17F0
:100A6C00D31A0F4A9360104B1A680C4B83FB02137A
:100A7C001913D317CB1A42F2107101FB03F3D31ADB
:100A8C00084A82FB03129211DB17D31A044AD36073
:100A9C0000BFBD4680BC704750000020AD8BDB68AA
:100AAC0058000020D34D62105400002080B500AFD8
:100ABC00FFF7AEFF0C4B5B68012B12D10B4B1B6885
:100ACC00032B02DD094B00221A60084B1B685A1CD1
:100ADC0006490A601846FFF705FF0121322000F095
:100AEC0071F900BF80BD00BFA8000020A00000204D
:100AFC0080B500AF002210210F4800F066FD0022E7
:100B0C0020210D4800F061FD002240210A4800F030
:100B1C005CFD00228021084800F057FD00224FF4B4
:100B2C008071054800F051FD00224FF4007102481D
:100B3C0000F04BFD00BF80BD0008014080B500AF48
:100B4C00012210210F4800F040FD012220210D4808
:100B5C0000F03BFD012240210A4800F036FD012245
:100B6C008021084800F031FD01224FF480710548C6
:100B7C0000F02BFD01224FF40071024800F025FD1E
:100B8C0000BF80BD0008014080B500AF00F01CFA2A
:100B9C0000F01AF800F0A0F800F052F8074801F045
:100BAC0071F9074B0A221A600121322000F00AF970
:100BBC00044B01221A60FFF7C3FAFCE7C8000020BF
:100BCC00A40000209000002080B590B000AF07F189
:100BDC00180328220021184601F010FD3B1D0022AD
:100BEC001A605A609A60DA601A610223BB610123B1
:100BFC00BB621023FB6200237B6307F118031846CA
:100C0C0000F014FD0346002B01D000F0D6F80F23A2
:100C1C007B600023BB600023FB6000233B6100234F
:100C2C007B613B1D0021184600F080FF0346002B22
:100C3C0001D000F0C2F800BF4037BD4680BD0000B7
:100C4C0080B586B000AF07F1080300221A605A6025
:100C5C009A60DA603B4600221A605A601D4B4FF0D6
:100C6C0080421A601B4B41F63F725A60194B0022AE
:100C7C009A60184B0922DA60164B00221A61154B48
:100C8C0000229A61134801F0ADF80346002B01D005
:100C9C0000F093F84FF48053BB6007F1080319463A
:100CAC000C4801F043FA0346002B01D000F085F804
:100CBC0000233B6000237B603B461946054801F04E
:100CCC000FFC0346002B01D000F077F800BF18375B
:100CDC00BD4680BDC800002080B586B000AF07F1CE
:100CEC00080300221A605A609A60DA60274B9B69ED
:100CFC00264A43F004039361244B9B6903F00403DD
:100D0C007B607B68214B9B69204A43F0080393610D
:100D1C001E4B9B6903F008033B603B68002243F6C3
:100D2C00F0711B4800F051FC00227F21194800F0A3
:100D3C004CFC0E23BB600023FB6001233B6107F1DD
:100D4C0008031946124800F0AFFA43F6F073BB6083
:100D5C000123FB6000233B6102237B6107F1080345
:100D6C0019460B4800F0A0FA7F23BB600123FB60FF
:100D7C0000233B6102237B6107F1080319460548F8
:100D8C0000F092FA00BF1837BD4680BD001002403B
:100D9C0000080140000C014080B582B000AF7860C3
:100DAC007B681B68B3F1804F03D100F029F8FFF783
:100DBC00F1FC00BF0837BD4680BD80B400AF72B6F1
:100DCC0000BFFEE780B483B000AF78603960094B98
:100DDC001B687A6892FBF3F207493B6841F82320C1
:100DEC00064A3B68002142F8231000BF0C37BD4671
:100DFC0080BC7047A4000020B0000020A800002098
:100E0C0080B483B000AF00237B601CE0124A7B6887
:100E1C0052F82330002B13DD0F4A7B6852F8233035
:100E2C005A1E0D497B6841F823200B4A7B6852F807
:100E3C002330002B04D1094A7B68012142F823108E
:100E4C007B6801337B607B68012BDFDD00BF00BF5B
:100E5C000C37BD4680BC7047B0000020A8000020B5
:100E6C0080B485B000AF154B9B69144A43F0010365
:100E7C009361124B9B6903F00103BB60BB680F4B82
:100E8C00DB690E4A43F08053D3610C4BDB6903F0F2
:100E9C0080537B607B680A4B5B68FB60FB6823F0CC
:100EAC00E063FB60FB6843F08063FB60044AFB6813
:100EBC00536000BF1437BD4680BC70470010024021
:100ECC000000014080B584B000AF78607B681B687F
:100EDC00B3F1804F13D10C4BDB690B4A43F0010388
:100EEC00D361094BDB6903F00103FB60FB68002253
:100EFC0000211C2000F0A1F91C2000F0BAF900BF61
:100F0C001037BD4680BD00BF0010024080B400AF5A
:100F1C00FEE780B400AFFEE780B400AFFEE780B41C
:100F2C0000AFFEE780B400AFFEE780B400AF00BFB7
:100F3C00BD4680BC704780B400AF00BFBD4680BCCE
:100F4C00704780B400AF00BFBD4680BC704780B511
:100F5C0000AF00F07FF800BF80BD000080B500AF8F
:100F6C00024800F0DBFF00BF80BD00BFC8000020BE
:100F7C0080B400AF00BFBD4680BC7047FFF7F8FFE0
:100F8C000B480C490C4A002302E0D458C4500433DB
:100F9C00C4188C42F9D3094A094C002301E01360B0
:100FAC000432A242FBD301F005FBFFF7EDFD7047C5
:100FBC0000000020740000205C2600087400002053
:100FCC0014010020FEE7000080B500AF084B1B6841
:100FDC00074A43F010031360032000F023F90F209D
:100FEC0000F008F8FFF73CFF0023184680BD00BF57
:100FFC000020024080B582B000AF7860124B1A68B6
:10100C00124B1B7819464FF47A73B3FBF1F3B2FB16
:10101C00F3F3184600F03BF90346002B01D00123F3
:10102C000EE07B680F2B0AD8002279684FF0FF3056
:10103C0000F003F9064A7B681360002300E00123EB
:10104C0018460837BD4680BD68000020700000209F
:10105C006C00002080B400AF054B1B781A46054B82
:10106C001B681344034A136000BFBD4680BC704725
:10107C00700000201001002080B400AF024B1B68F0
:10108C001846BD4680BC70471001002080B485B066
:10109C0000AF78607B6803F00703FB600C4BDB68E8
:1010AC00BB60BA684FF6FF031340BB60FB681A02C3
:1010BC00BB68134343F0BF6343F40033BB60044A83
:1010CC00BB68D36000BF1437BD4680BC704700BFFF
:1010DC0000ED00E080B400AF044BDB681B0A03F0AA
:1010EC0007031846BD4680BC704700BF00ED00E00A
:1010FC0080B483B000AF0346FB7197F90730002B27
:10110C000BDBFB7903F01F02064997F907305B09EB
:10111C00012000FA02F241F8232000BF0C37BD4633
:10112C0080BC704700E100E080B483B000AF0346A0
:10113C003960FB7197F90730002B0ADB3B68DAB298
:10114C000C4997F907301201D2B20B4483F80023F3
:10115C000AE03B68DAB20849FB7903F00F03043B61
:10116C001201D2B20B441A7600BF0C37BD4680BCBC
:10117C00704700BF00E100E000ED00E080B489B0F2
:10118C0000AFF860B9607A60FB6803F00703FB619D
:10119C00FB69C3F10703042B28BF0423BB61FB6964
:1011AC000433062B02D9FB69033B00E000237B616F
:1011BC004FF0FF32BB6902FA03F3DA43BB681A4003
:1011CC007B699A404FF0FF317B6901FA03F3D943F5
:1011DC007B680B40134318462437BD4680BC7047D0
:1011EC0080B582B000AF78607B68013BB3F1807F43
:1011FC0001D301230FE00A4A7B68013B53600F21A6
:10120C004FF0FF30FFF790FF054B00229A60044B24
:10121C0007221A60002318460837BD4680BD00BF60
:10122C0010E000E080B582B000AF78607868FFF71E
:10123C002DFF00BF0837BD4680BD80B586B000AF1E
:10124C000346B9607A60FB7300237B61FFF742FFB2
:10125C0078617A68B9687869FFF790FF024697F968
:10126C000F3011461846FFF75FFF00BF1837BD4619
:10127C0080BD80B582B000AF0346FB7197F9073093
:10128C001846FFF735FF00BF0837BD4680BD80B557
:10129C0082B000AF78607868FFF7A2FF034618466B
:1012AC000837BD4680BD000080B48BB000AF7860BD
:1012BC00396000237B6200233B6248E101227B6A98
:1012CC0002FA03F3FB613B681B68FA691340BB61CC
:1012DC00BA69FB699A4240F037813B685B68A34A64
:1012EC0093425ED0A14A934275D8A14A934258D0FA
:1012FC009F4A93426FD89F4A934252D09D4A934241
:10130C0069D89D4A93424CD09B4A934263D89B4ADE
:10131C00934246D0994A93425DD8122B2AD8122B6D
:10132C0059D801A252F823F0AF1300088913000812
:10133C009B130008DD130008E3130008E3130008F7
:10134C00E3130008E3130008E3130008E313000899
:10135C00E3130008E3130008E3130008E313000889
:10136C00E3130008E3130008E313000891130008CB
:10137C00A5130008824A934213D02CE03B68DB682B
:10138C003B6229E03B68DB6804333B6224E03B684A
:10139C00DB6808333B621FE03B68DB680C333B6265
:1013AC001AE03B689B68002B02D104233B6213E0DC
:1013BC003B689B68012B05D108233B627B68FA696B
:1013CC001A6109E008233B627B68FA695A6103E001
:1013DC0000233B6200E000BFBB69FF2B01D87B6898
:1013EC0001E07B6804337B61BB69FF2B02D87B6A0D
:1013FC009B0002E07B6A083B9B003B617B691A689F
:10140C000F213B6901FA03F3DB431A40396A3B694C
:10141C0001FA03F31A437B691A603B685B6803F0BB
:10142C008053002B00F09080564B9B69554A43F03B
:10143C0001039361534B9B6903F00103BB60BB68D1
:10144C00514A7B6A9B08023352F82330FB607B6A5B
:10145C0003F003039B000F2202FA03F3DB43FA6849
:10146C001340FB607B68494A93420DD07B68484A25
:10147C00934207D07B68474A934201D1022304E090
:10148C00032302E0012300E000237A6A02F0030246
:10149C0092009340FA681343FB603B497B6A9B08BC
:1014AC000233FA6841F823203B685B6803F480132D
:1014BC00002B06D0384B9A683749BB6913438B60B5
:1014CC0006E0354B9A68BB69DB43334913408B60AC
:1014DC003B685B6803F40013002B06D02E4BDA68D4
:1014EC002D49BB691343CB6006E02B4BDA68BB6913
:1014FC00DB4329491340CB603B685B6803F4003342
:10150C00002B06D0244B5A682349BB6913434B600C
:10151C0006E0214B5A68BB69DB431F4913404B6003
:10152C003B685B6803F48033002B06D01A4B1A68B7
:10153C001949BB6913430B6006E0174B1A68BB696A
:10154C00DB43154913400B607B6A01337B623B68BC
:10155C001A687B6A22FA03F3002B7FF4AFAE00BF4C
:10156C0000BF2C37BD4680BC704700BF0000321056
:10157C000000311000002210000021100000121099
:10158C000000111000100240000001400008014052
:10159C00000C0140001001400004014080B485B0F3
:1015AC0000AF78600B467B807B689A687B88134021
:1015BC00002B02D00123FB7301E00023FB73FB7BA8
:1015CC0018461437BD4680BC704780B483B000AF5A
:1015DC0078600B467B8013467B707B78002B03D0A6
:1015EC007A887B681A6103E07B881A047B681A612D
:1015FC0000BF0C37BD4680BC704780B485B000AFCF
:10160C0078600B467B807B68DB68FB607A88FB68C4
:10161C0013401A04FB68D9437B880B401A437B6840
:10162C001A6100BF1437BD4680BC704780B586B0C8
:10163C0000AF78607B68002B01D101236CE27B68E2
:10164C001B6803F00103002B00F08780924B5B6852
:10165C0003F00C03042B0CD08F4B5B6803F00C03D2
:10166C00082B12D18C4B5B6803F48033B3F5803FAD
:10167C000BD1894B1B6803F40033002B6CD07B68B7
:10168C005B68002B68D1012346E27B685B68B3F58D
:10169C00803F06D1804B1B687F4A43F48033136034
:1016AC002EE07B685B68002B0CD17B4B1B687A4A65
:1016BC0023F480331360784B1B68774A23F4802320
:1016CC0013601DE07B685B68B3F5A02F0CD1724BE7
:1016DC001B68714A43F4802313606F4B1B686E4A7E
:1016EC0043F4803313600BE06B4B1B686A4A23F4A2
:1016FC0080331360684B1B68674A23F480231360A4
:10170C007B685B68002B13D0FFF7B6FC386108E0F0
:10171C00FFF7B2FC02463B69D31A642B01D90323B1
:10172C00FAE15D4B1B6803F40033002BF0D014E09E
:10173C00FFF7A2FC386108E0FFF79EFC02463B690C
:10174C00D31A642B01D90323E6E1534B1B6803F432
:10175C000033002BF0D100E000BF7B681B6803F066
:10176C000203002B63D04C4B5B6803F00C03002B83
:10177C000BD0494B5B6803F00C03082B1CD1464B78
:10178C005B6803F48033002B16D1434B1B6803F0CA
:10179C000203002B05D07B681B69012B01D00123B0
:1017AC00BAE13D4B1B6823F0F8027B685B69DB00F8
:1017BC00394913430B603AE07B681B69002B20D03E
:1017CC00364B01221A60FFF757FC386108E0FFF72F
:1017DC0053FC02463B69D31A022B01D903239BE12C
:1017EC002D4B1B6803F00203002BF0D02A4B1B6817
:1017FC0023F0F8027B685B69DB00274913430B601D
:10180C0015E0264B00221A60FFF736FC386108E021
:10181C00FFF732FC02463B69D31A022B01D9032392
:10182C007AE11D4B1B6803F00203002BF0D17B689F
:10183C001B6803F00803002B3AD07B689B69002BD4
:10184C0019D0174B01221A60FFF716FC386108E01B
:10185C00FFF712FC02463B69D31A022B01D9032372
:10186C005AE10D4B5B6A03F00203002BF0D0012010
:10187C0000F09AFA1CE00A4B00221A60FFF7FCFBFE
:10188C0038610FE0FFF7F8FB02463B69D31A022BD5
:10189C0008D9032340E100BF00100240000042427F
:1018AC00800442429E4B5B6A03F00203002BE9D199
:1018BC007B681B6803F00403002B00F0A680002358
:1018CC00FB75974BDB6903F08053002B0DD1944BC8
:1018DC00DB69934A43F08053D361914BDB6903F08E
:1018EC008053BB60BB680123FB758E4B1B6803F4F4
:1018FC008073002B18D18B4B1B688A4A43F480737E
:10190C001360FFF7B9FB386108E0FFF7B5FB02463F
:10191C003B69D31A642B01D90323FDE0814B1B686F
:10192C0003F48073002BF0D07B68DB68012B06D1AD
:10193C007B4B1B6A7A4A43F0010313622DE07B68F0
:10194C00DB68002B0CD1764B1B6A754A23F0010324
:10195C001362734B1B6A724A23F0040313621CE07C
:10196C007B68DB68052B0CD16D4B1B6A6C4A43F012
:10197C00040313626A4B1B6A694A43F00103136246
:10198C000BE0674B1B6A664A23F001031362644B3E
:10199C001B6A634A23F0040313627B68DB68002B29
:1019AC0015D0FFF769FB38610AE0FFF765FB0246CB
:1019BC003B69D31A41F28832934201D90323ABE03D
:1019CC00574B1B6A03F00203002BEED014E0FFF719
:1019DC0053FB38610AE0FFF74FFB02463B69D31A11
:1019EC0041F28832934201D9032395E04C4B1B6A98
:1019FC0003F00203002BEED1FB7D012B05D1484BEC
:101A0C00DB69474A23F08053D3617B68DB69002B89
:101A1C0000F08180424B5B6803F00C03082B61D013
:101A2C007B68DB69022B46D13F4B00221A60FFF723
:101A3C0023FB386108E0FFF71FFB02463B69D31A12
:101A4C00022B01D9032367E0354B1B6803F00073AD
:101A5C00002BF0D17B681B6AB3F5803F08D1304B6B
:101A6C005B6823F400327B689B682D4913434B6001
:101A7C002B4B5B6823F474127B68196A7B685B6A76
:101A8C000B43274913434B60274B01221A60FFF786
:101A9C00F3FA386108E0FFF7EFFA02463B69D31A14
:101AAC00022B01D9032337E01D4B1B6803F0007395
:101ABC00002BF0D02FE01C4B00221A60FFF7DCFA51
:101ACC00386108E0FFF7D8FA02463B69D31A022BBB
:101ADC0001D9032320E0124B1B6803F00073002B89
:101AEC00F0D118E07B68DB69012B01D1012313E0F5
:101AFC000B4B5B68FB60FB6803F480327B681B6AF2
:101B0C009A4206D1FB6803F470127B685B6A9A42B6
:101B1C0001D0012300E0002318461837BD4680BDD4
:101B2C0000100240007000406000424280B584B05A
:101B3C0000AF786039607B68002B01D10123D0E0C5
:101B4C006A4B1B6803F007033A689A4210D9674B3B
:101B5C001B6823F0070265493B6813430B60634B1A
:101B6C001B6803F007033A689A4201D00123B8E0DE
:101B7C007B681B6803F00203002B20D07B681B687A
:101B8C0003F00403002B05D0594B5B68584A43F40F
:101B9C00E06353607B681B6803F00803002B05D0DF
:101BAC00534B5B68524A43F460535360504B5B6831
:101BBC0023F0F0027B689B684D4913434B607B68B4
:101BCC001B6803F00103002B40D07B685B68012B82
:101BDC0007D1474B1B6803F40033002B15D10123AD
:101BEC007FE07B685B68022B07D1414B1B6803F0DD
:101BFC000073002B09D1012373E03D4B1B6803F0EC
:101C0C000203002B01D101236BE0394B5B6823F0FD
:101C1C0003027B685B68364913434B60FFF72CFA71
:101C2C00F8600AE0FFF728FA0246FB68D31A41F283
:101C3C008832934201D9032353E02D4B5B6803F0A8
:101C4C000C027B685B689B009A42EBD1274B1B68AC
:101C5C0003F007033A689A4210D2244B1B6823F016
:101C6C00070222493B6813430B60204B1B6803F0AF
:101C7C0007033A689A4201D0012332E07B681B6863
:101C8C0003F00403002B08D0194B5B6823F4E062CB
:101C9C007B68DB68164913434B607B681B6803F059
:101CAC000803002B09D0124B5B6823F460527B684D
:101CBC001B69DB000E4913434B6000F021F8024610
:101CCC000B4B5B681B0903F00F030A49CB5C22FA30
:101CDC0003F3094A1360094B1B681846FFF78AF98E
:101CEC00002318461037BD4680BD00BF00200240BF
:101CFC000010024030260008680000206C00002014
:101D0C0080B487B000AF0023FB600023BB600023CE
:101D1C007B6100237B6000233B611E4B5B68FB6097
:101D2C00FB6803F00C03042B02D0082B03D027E034
:101D3C00194B3B6127E0FB689B0C03F00F03174A20
:101D4C00D35C7B60FB6803F48033002B10D0114B09
:101D5C005B685B0C03F00103114AD35CBB607B68CE
:101D6C000D4A02FB03F2BB68B2FBF3F37B6104E0A8
:101D7C007B680C4A02FB03F37B617B693B6102E0ED
:101D8C00054B3B6100BF3B6918461C37BD4680BC08
:101D9C00704700BF0010024000127A004026000875
:101DAC005026000800093D0080B485B000AF786073
:101DBC000A4B1B680A4AA2FB03235B0A7A6802FBE4
:101DCC0003F3FB6000BFFB685A1EFA60002BF9D1CD
:101DDC0000BF00BF1437BD4680BC704768000020B0
:101DEC00D34D621080B582B000AF78607B68002B59
:101DFC0001D1012341E07B6893F83D30DBB2002B2D
:101E0C0006D17B68002283F83C207868FFF75AF8EB
:101E1C007B68022283F83D207B681A687B68043358
:101E2C001946104600F06EFA7B68012283F84620B2
:101E3C007B68012283F83E207B68012283F83F20D7
:101E4C007B68012283F840207B68012283F84120C3
:101E5C007B68012283F842207B68012283F84320AF
:101E6C007B68012283F844207B68012283F845209B
:101E7C007B68012283F83D20002318460837BD46B5
:101E8C0080BD000080B485B000AF78607B6893F8AB
:101E9C003D30DBB2012B01D0012335E07B680222FF
:101EAC0083F83D207B681B68DA687B681B6842F00E
:101EBC000102DA607B681B68164A934209D07B6882
:101ECC001B68B3F1804F04D07B681B68124A9342A5
:101EDC0011D17B681B689B6803F00703FB60FB68F0
:101EEC00062B10D07B681B681A687B681B6842F055
:101EFC0001021A6007E07B681B681A687B681B6824
:101F0C0042F001021A60002318461437BD4680BC0B
:101F1C00704700BF002C01400004004080B582B027
:101F2C0000AF78607B681B681B6903F00203022B0F
:101F3C0022D17B681B68DB6803F00203022B1BD1E8
:101F4C007B681B686FF002021A617B6801221A77AA
:101F5C007B681B689B6903F00303002B03D0786834
:101F6C0000F0B4F905E0786800F0A7F9786800F0A3
:101F7C00B6F97B6800221A777B681B681B6903F033
:101F8C000403042B22D17B681B68DB6803F0040379
:101F9C00042B1BD17B681B686FF004021A617B68F1
:101FAC0002221A777B681B689B6903F44073002B31
:101FBC0003D0786800F08AF905E0786800F07DF9C4
:101FCC00786800F08CF97B6800221A777B681B68B4
:101FDC001B6903F00803082B22D17B681B68DB68A4
:101FEC0003F00803082B1BD17B681B686FF00802F9
:101FFC001A617B6804221A777B681B68DB6903F023
:10200C000303002B03D0786800F060F905E07868D2
:10201C0000F053F9786800F062F97B6800221A77B7
:10202C007B681B681B6903F01003102B22D17B68A3
:10203C001B68DB6803F01003102B1BD17B681B683B
:10204C006FF010021A617B6808221A777B681B6894
:10205C00DB6903F44073002B03D0786800F036F989
:10206C0005E0786800F029F9786800F038F97B68A9
:10207C0000221A777B681B681B6903F00103012B94
:10208C000ED17B681B68DB6803F00103012B07D1C1
:10209C007B681B686FF001021A617868FEF77CFEA2
:1020AC007B681B681B6903F08003802B0ED17B6857
:1020BC001B68DB6803F08003802B07D17B681B68EF
:1020CC006FF080021A61786800F06BFA7B681B680D
:1020DC001B6903F04003402B0ED17B681B68DB6847
:1020EC0003F04003402B07D17B681B686FF0400264
:1020FC001A61786800F0FCF87B681B681B6903F0B8
:10210C002003202B0ED17B681B68DB6803F02003B7
:10211C00202B07D17B681B686FF020021A6178684E
:10212C0000F036FA00BF0837BD4680BD80B584B0DC
:10213C0000AF786039600023FB737B6893F83C3008
:10214C00012B01D10223B4E07B68012283F83C20EF
:10215C007B68022283F83D207B681B689B68BB6010
:10216C00BB6823F07703BB60BB6823F47F43BB6081
:10217C007B681B68BA689A603B681B68B3F5005FA4
:10218C003ED0B3F5005F00F28780B3F5805F00F0BE
:10219C008680B3F5805F7FD8702B1AD0702B7BD8DC
:1021AC00602B50D0602B77D8502B3CD0502B73D851
:1021BC00402B58D0402B6FD8302B64D0302B6BD8A1
:1021CC00202B60D0202B67D8002B5CD0102B5AD042
:1021DC0062E07B6818683B6899683B685A683B68A2
:1021EC00DB6800F05EF97B681B689B68BB60BB68B2
:1021FC0043F07703BB607B681B68BA689A604FE05A
:10220C007B6818683B6899683B685A683B68DB6870
:10221C0000F047F97B681B689A687B681B6842F47E
:10222C0080429A603CE07B6818683B6859683B6860
:10223C00DB681A4600F0BEF87B681B685021184614
:10224C0000F015F92CE07B6818683B6859683B680E
:10225C00DB681A4600F0DCF87B681B6860211846C6
:10226C0000F005F91CE07B6818683B6859683B680E
:10227C00DB681A4600F09EF87B681B684021184604
:10228C0000F0F5F80CE07B681A683B681B6819468F
:10229C00104600F0ECF803E00123FB7300E000BFF4
:1022AC007B68012283F83D207B68002283F83C2068
:1022BC00FB7B18461037BD4680BD80B483B000AFA1
:1022CC00786000BF0C37BD4680BC704780B483B0CB
:1022DC0000AF786000BF0C37BD4680BC704780B43F
:1022EC0083B000AF786000BF0C37BD4680BC704730
:1022FC0080B483B000AF786000BF0C37BD4680BCA3
:10230C007047000080B485B000AF786039607B689E
:10231C001B68FB607B68254A934207D07B68B3F14E
:10232C00804F03D07B68224A934208D1FB6823F08C
:10233C007003FB603B685B68FA681343FB607B6867
:10234C001A4A934207D07B68B3F1804F03D07B6865
:10235C00174A934208D1FB6823F44073FB603B6837
:10236C00DB68FA681343FB60FB6823F080023B6870
:10237C005B691343FB607B68FA681A603B689A6878
:10238C007B68DA623B681A687B689A627B68074AEA
:10239C00934203D13B681A697B681A637B680122FC
:1023AC005A6100BF1437BD4680BC7047002C0140F9
:1023BC000004004080B487B000AFF860B9607A6068
:1023CC00FB681B6A7B61FB681B6A23F00102FB68DC
:1023DC001A62FB689B693B613B6923F0F0033B612C
:1023EC007B681B013A6913433B617B6923F00A0349
:1023FC007B617A69BB6813437B61FB683A699A61BC
:10240C00FB687A691A6200BF1C37BD4680BC7047F6
:10241C0080B487B000AFF860B9607A60FB681B6A63
:10242C007B61FB681B6A23F01002FB681A62FB6875
:10243C009B693B613B6923F470433B617B681B03E5
:10244C003A6913433B617B6923F0A0037B61BB6852
:10245C001B017A6913437B61FB683A699A61FB68DB
:10246C007A691A6200BF1C37BD4680BC704780B4C5
:10247C0085B000AF786039607B689B68FB60FB6857
:10248C0023F07003FB603A68FB68134343F00703C7
:10249C00FB607B68FA689A6000BF1437BD4680BC4D
:1024AC00704780B487B000AFF860B9607A603B6069
:1024BC00FB689B687B617B6923F47F437B613B6892
:1024CC001A027B681A43BB6813437A6913437B6116
:1024DC00FB687A699A6000BF1C37BD4680BC7047A8
:1024EC0080B485B000AF786039607B6893F83C307D
:1024FC00012B01D1022341E07B68012283F83C20AF
:10250C007B68022283F83D207B681B685B68FB605C
:10251C007B681B689B68BB60FB6823F07003FB60E7
:10252C003B681B68FA681343FB607B681B68FA689E
:10253C005A607B681B68144A934209D07B681B68FD
:10254C00B3F1804F04D07B681B68104A93420CD1C6
:10255C00BB6823F08003BB603B685B68BA681343BD
:10256C00BB607B681B68BA689A607B68012283F841
:10257C003D207B68002283F83C200023184614374A
:10258C00BD4680BC704700BF002C014000040040D9
:10259C0080B483B000AF786000BF0C37BD4680BC00
:1025AC00704780B483B000AF786000BF0C37BD4675
:1025BC0080BC704770B500260C4D0D4C641BA410EC
:1025CC00A64209D100F022F800260A4D0A4C641BE1
:1025DC00A410A64205D170BD55F8043B98470136AE
:1025EC00EEE755F8043B98470136F2E7542600080D
:1025FC0054260008542600085826000803460244B6
:10260C00934200D1704703F8011BF9E7F8B500BFFE
:10261C00F8BC08BC9E467047F8B500BFF8BC08BCB7
:04262C009E4670470F
:102630000000000000000000010203040607080972
:1026400002030405060708090A0B0C0D0E0F1010F3
:042650000102000083
:042654003101000848
:042658000D01000868
:10265C0088130000B80B0000401F000001000000B0
:10266C00000000000000000001000000000000005D
:10267C00000000000100000000000000000000004D
:10268C00010000000000000000000000D007000066
:10269C00FA000000C0F9A4B0999282F88090000072
:1026AC00640000006400000005000000060000004B
:1026BC0007000000080000000024F40010000000D7
:0426CC000100000009
:0400000508000F8957
:00000001FF
