:020000040800F2
:1000000000280020DD0F00086D0F0008730F0008A6
:10001000790F00087F0F0008850F0008000000001E
:100020000000000000000000000000008B0F00082E
:10003000970F000800000000A30F0008AF0F000892
:1000400025100008251000082510000825100008BC
:1000500025100008251000082510000825100008AC
:10006000251000082510000825100008251000089C
:10007000251000082510000825100008251000088C
:10008000251000082510000825100008251000087C
:10009000251000082510000825100008251000086C
:1000A000251000082510000825100008251000085C
:1000B000BD0F0008251000080000000025100008F2
:1000C00025100008000000000000000025100008B6
:1000D00000000000251000082510000800000000A6
:1000E0002510000825100008251000080000000059
:1000F0000000000000000000000000000000000000
:0C01000000000000000000005FF808F1A3
:10010C0010B5054C237833B9044B13B10448AFF345
:10011C0000800123237010BD74000020000000003B
:10012C006C26000808B5034B1BB103490348AFF319
:10013C00008008BD00000000780000206C2600083C
:10014C0080B500AF9A4B1B68013B132B00F2A282C7
:10015C0001A252F823F000BFB5010008C901000844
:10016C00750200080F030008E1030008A10600084F
:10017C00A1060008A1060008A10600087B040008DF
:10018C0015050008B1050008A1060008A106000825
:10019C00A1060008A1060008A1060008A106000897
:1001AC00A10600087D060008814B02221A60814BD3
:1001BC001B680021184600F02FFE94E27E4B1B6852
:1001CC007E4A13607C4B1A687D4B1B687D4981FB12
:1001DC0003018910DB17CB1A13447B4A13600122ED
:1001EC0010217A4801F01BFA00222021774801F0F7
:1001FC0016FA00224021754801F011FA00228021E4
:10020C00724801F00CFA00224FF480716F4801F033
:10021C0006FA01224FF400716C4801F000FA6C4BA5
:10022C001B68012B08D1624B03221A60644B1B68BC
:10023C000021184600F0F0FD002000F067FA03469C
:10024C00002B00F029825A4B0A221A6000F0F4FBB2
:10025C005D4B00221A60594B00221A6000214FF4AA
:10026C00FA7000F0D9FD17E2534B1B68534A136028
:10027C00514B1B68544A136001221021534801F062
:10028C00CEF900222021514801F0C9F90022402169
:10029C004E4801F0C4F9002280214C4801F0BFF90E
:1002AC0001224FF48071494801F0B9F900224FF452
:1002BC000071464801F0B3F9454B1B68012B08D17E
:1002CC003B4B04221A603B4B1B680021184600F084
:1002DC00A3FD002000F01AFA0346002B00F0DE818B
:1002EC00334B0A221A6000F0A7FB374B00221A602E
:1002FC00324B00221A6000214FF4FA7000F08CFD92
:10030C00CCE12D4B1A682E4B1B682E4981FB030147
:10031C008910DB17CB1A1344284A1360264B1B6831
:10032C00294A136000221021284801F078F9002294
:10033C002021264801F073F901224021234801F0C5
:10034C006EF901228021214801F069F900224FF455
:10035C0080711E4801F063F900224FF400711B48B4
:10036C0001F05DF91A4B1B68012B08D1104B0522CB
:10037C001A60134B1B680021184600F04DFD00203D
:10038C0000F0C4F90346002B00F08A81084B0A22C6
:10039C001A6000F051FB0C4B00221A60074B002234
:1003AC001A6000214FF4FA7000F036FD78E100BFBE
:1003BC009000002000000020C80000205000002009
:1003CC0004000020676666664C00002000080140AF
:1003DC00BC000020B44B1B68B44A1360B24B1B68C2
:1003EC00B34A136000221021B24801F018F901221F
:1003FC002021B04801F013F900224021AD4801F052
:10040C000EF901228021AB4801F009F900224FF4CA
:10041C008071A84801F003F900224FF40071A5483F
:10042C0001F0FDF8A44B1B68012B08D1A34B022251
:10043C001A60A34B1B680021184600F0EDFC00204D
:10044C0000F064F90346002B00F02C819B4B0A2230
:10045C001A6000F0F1FA964B00221A60934B0022BE
:10046C001A6000214FF4FA7000F0D6FC1AE101205A
:10047C0000F04CF90346002B0ED08D4B1B6842F25A
:10048C00AC62934203DD8A4B00221A6004E0884B75
:10049C001B686433864A1360022000F037F9034668
:1004AC00002B08D0824B1A6813469B0013445B0048
:1004BC001A46844B1A60804B1B68012B0CD11021FF
:1004CC007C4801F0C4F880217A4801F0C0F8002182
:1004DC004FF4FA7000F0A0FC002000F017F903466E
:1004EC00002B00F0F980754B0B221A6000F0A4FA77
:1004FC006F4B00221A606D4B00221A6000214FF4E2
:10050C00FA7000F089FCE7E0012000F0FFF80346E8
:10051C00002B0ED0664B1B6842F2AC62934203DD9B
:10052C00634B00221A6004E0614B1B686433604A21
:10053C001360022000F0EAF80346002B08D05C4B55
:10054C001A6813469B0013445B001A465E4B1A60F4
:10055C00594B1B68012B0DD12021564801F077F81F
:10056C004FF48071534801F072F800214FF4FA7087
:10057C0000F052FC002000F0C9F80346002B00F0FC
:10058C00AD804E4B0C221A6000F056FA484B0022FC
:10059C001A60464B00221A6000214FF4FA7000F0EA
:1005AC003BFC9BE0012000F0B1F80346002B0ED081
:1005BC003F4B1B6842F2AC62934203DD3C4B002282
:1005CC001A6004E03A4B1B686433394A136002200A
:1005DC0000F09CF80346002B26D0354B1A681346C6
:1005EC009B0013445B001A46384B1A60374B1A6851
:1005FC00354B1B681A44334B1B689A4208D02F4B5F
:10060C0014221A6000214FF4FA6000F005FC0BE094
:10061C002E4B1B682A4A13602A4B1B682C4A13600A
:10062C00294B1B682B4A1360234B1B68012B0DD1E4
:10063C004021204801F00BF84FF400711D4801F0E7
:10064C0006F800214FF4FA7000F0E6FB002000F0F1
:10065C005DF80346002B43D0184B02221A6000F0C1
:10066C00EBF9174B1B680021184600F0D5FB37E05F
:10067C0000F008FA104B1B68002B33D00F4B0222F2
:10068C001A6000F0D9F90E4B1B680021184600F0D7
:10069C00C3FB27E000BF26E000BF24E000BF22E040
:1006AC0000BF20E000BF1EE0C8000020500000206A
:1006BC004C00002000080140BC00002090000020ED
:1006CC0000000020D4000020DC000020D800002016
:1006DC00080000200400002000BF04E000BF02E07E
:1006EC0000BF00E000BF00BF80BD00BF80B483B07E
:1006FC0000AF7860044A7B68012142F8231000BFE8
:10070C000C37BD4680BC70479400002080B483B089
:10071C0000AF7860094A7B6852F82330012B06D170
:10072C00064A7B68002142F82310012300E00023D5
:10073C0018460C37BD4680BC704700BF94000020A3
:10074C0080B582B000AF00237B6069E0384A7B68DB
:10075C0052F8232037497B6841F82320364A7B68BE
:10076C0052F8232032497B6841F8232002227B680F
:10077C0002FA03F39BB21946304800F039FF0346E6
:10078C0019462D4A7B6842F82310294A7B6852F897
:10079C00232029497B6851F823309A423DD1244AC1
:1007AC007B6852F8232023497B6851F823309A4206
:1007BC0033D1204A7B6852F8232021497B6851F8B9
:1007CC0023309A4214D01B4A7B6852F823201C49D0
:1007DC007B6841F823201A4A7B6852F82330002B9F
:1007EC001BD1184BC8221A607868FFF77FFF14E002
:1007FC00144B1B68013B134A1360124B1B68002BF4
:10080C000BD1104B19221A600D4A7B6852F8233019
:10081C00002B02D17868FFF769FF7B6801337B609E
:10082C007B68022B92DD00BF00BF0837BD4680BD40
:10083C0018000020240000200C00002000080140BB
:10084C00300000203C00002080B483B000AF786002
:10085C00054A7B6813441A78044BDA6000BF0C37E6
:10086C00BD4680BC704700BF40000020000C01401A
:10087C0080B582B000AF78607B68032B00F2848077
:10088C0001A252F823F000BFA5080008E1080008F7
:10089C001D0900085909000800224FF480613D48E9
:1008AC0000F0BDFE01224FF400613A4800F0B7FEA3
:1008BC0001224FF48051374800F0B1FE01224FF471
:1008CC000051344800F0ABFE334B1B681846FFF761
:1008DC00BBFF5AE001224FF480612E4800F09FFECE
:1008EC0000224FF400612B4800F099FE01224FF4D6
:1008FC008051284800F093FE01224FF40051254806
:10090C0000F08DFE244B5B681846FFF79DFF3CE022
:10091C0001224FF480611F4800F081FE01224FF448
:10092C0000611C4800F07BFE00224FF480511948F6
:10093C0000F075FE01224FF40051164800F06FFED6
:10094C00154B9B681846FFF77FFF1EE001224FF402
:10095C008061104800F063FE01224FF400610D48E5
:10096C0000F05DFE01224FF480510A4800F057FE62
:10097C0000224FF40051074800F051FE064BDB6893
:10098C001846FFF761FF00E000BF00BF0837BD4607
:10099C0080BD00BF000801405400002080B400AFAF
:1009AC00204B1B68204A82FB03129211DB17D31ACF
:1009BC001E4A13601B4B1A681B4B83FB02139911C5
:1009CC00D317CB1A4FF47A7101FB03F3D31A184ADD
:1009DC0082FB03125211DB17D31A144A5360154BC6
:1009EC001B68114A82FB03129211DB17D31A0F4AB0
:1009FC009360104B1A680C4B83FB02139911D3179D
:100A0C00CB1A4FF47A7101FB03F3D31A084A82FB19
:100A1C0003125211DB17D31A044AD36000BFBD4630
:100A2C0080BC70474C000020D34D62105400002055
:100A3C001F85EB515000002080B500AF0022102123
:100A4C000F4800F0ECFD002220210D4800F0E7FDDE
:100A5C00002240210A4800F0E2FD002280210848D3
:100A6C0000F0DDFD00224FF48071054800F0D7FD49
:100A7C0000224FF40071024800F0D1FD00BF80BD90
:100A8C000008014080B500AF012210210F4800F092
:100A9C00C6FD012220210D4800F0C1FD012240219C
:100AAC000A4800F0BCFD01228021084800F0B7FD87
:100ABC0001224FF48071054800F0B1FD01224FF482
:100ACC000071024800F0ABFD00BF80BD0008014082
:100ADC0090B583B000AF0023FB7146E0FA79FB7947
:100AEC002649895C264AD154FB799BB201339BB2CF
:100AFC00FC791946234800F07BFD03461A461F4B30
:100B0C001A55FB791D4AD25CFB791D49CB5C9A4284
:100B1C0028D1FA79FB791949895C1B4AD154FB79A4
:100B2C00194AD35C002B14D1FB79184A32F81330D4
:100B3C00632B09D8FB79154A32F81320013291B294
:100B4C00124A22F813100DE0FB79114A0121D154FD
:100B5C0008E0FB790D4A002122F81310FB790C4AAE
:100B6C000021D154FB790133FB71FB79022BB5D9F0
:100B7C0000BF00BF0C37BD4690BD00BFA8000020D1
:100B8C00AC00002000080140A4000020B4000020AC
:100B9C00B000002080B500AF00F040FA00F03CF847
:100BAC0000F0C2F800F074F8154801F095F9012135
:100BBC00322000F031F9134BC8221A60124BC822B4
:100BCC001A60124B01221A60FFF7E8FEFFF7B8FA21
:100BDC000F4B5B68012BF7D10E4B1B68032B02DD0F
:100BEC000C4B00221A600B4B1B685A1C09490A60FB
:100BFC001846FFF73DFE0121322000F00DF9E3E726
:100C0C00E00000204C00002050000020900000204C
:100C1C00BC000020A000002080B590B000AF07F110
:100C2C00180328220021184601F012FD3B1D00225A
:100C3C001A605A609A60DA601A610223BB61012360
:100C4C00BB621023FB6200237B6307F11803184679
:100C5C0000F016FD0346002B01D000F0D8F80F234E
:100C6C007B600023BB600023FB6000233B610023FF
:100C7C007B613B1D0021184600F082FF0346002BD0
:100C8C0001D000F0C4F800BF4037BD4680BD000065
:100C9C0080B586B000AF07F1080300221A605A60D5
:100CAC009A60DA603B4600221A605A601D4B4FF086
:100CBC0080421A601B4B41F63F725A60194B00225E
:100CCC009A60184B0922DA60164B00221A61154BF8
:100CDC0000229A61134801F0AFF80346002B01D0B3
:100CEC0000F095F84FF48053BB6007F108031946E8
:100CFC000C4801F045FA0346002B01D000F087F8B0
:100D0C0000233B6000237B603B461946054801F0FD
:100D1C0011FC0346002B01D000F079F800BF183706
:100D2C00BD4680BDE000002080B586B000AF07F165
:100D3C00080300221A605A609A60DA60274B9B699C
:100D4C00264A43F004039361244B9B6903F004038C
:100D5C007B607B68214B9B69204A43F008039361BD
:100D6C001E4B9B6903F008033B603B68002243F673
:100D7C00F0711B4800F053FC00227F21194800F051
:100D8C004EFC0E23BB600023FB6001233B6107F18B
:100D9C0008031946124800F0B1FA43F6F073BB6031
:100DAC000123FB6000233B6102237B6107F10803F5
:100DBC0019460B4800F0A2FA7F23BB600123FB60AD
:100DCC0000233B6102237B6107F1080319460548A8
:100DDC0000F094FA00BF1837BD4680BD00100240E9
:100DEC0000080140000C014080B582B000AF786073
:100DFC007B681B68B3F1804F05D1FFF769FE00F0EB
:100E0C0029F8FFF79DFC00BF0837BD4680BD80B4B4
:100E1C0000AF72B600BFFEE780B483B000AF78605D
:100E2C003960094B1B687A6892FBF3F207493B68FF
:100E3C0041F82320064A3B68002142F8231000BFEA
:100E4C000C37BD4680BC704764000020C8000020F1
:100E5C00BC00002080B483B000AF00237B601CE09A
:100E6C00124A7B6852F82330002B13DD0F4A7B6843
:100E7C0052F823305A1E0D497B6841F823200B4A47
:100E8C007B6852F82330002B04D1094A7B6801217E
:100E9C0042F823107B6801337B607B68022BDFDD1B
:100EAC0000BF00BF0C37BD4680BC7047C800002097
:100EBC00BC00002080B485B000AF154B9B69144A70
:100ECC0043F001039361124B9B6903F00103BB6078
:100EDC00BB680F4BDB690E4A43F08053D3610C4B5C
:100EEC00DB6903F080537B607B680A4B5B68FB60BB
:100EFC00FB6823F0E063FB60FB6843F08063FB60FE
:100F0C00044AFB68536000BF1437BD4680BC704771
:100F1C00001002400000014080B584B000AF786042
:100F2C007B681B68B3F1804F13D10C4BDB690B4A08
:100F3C0043F00103D361094BDB6903F00103FB6050
:100F4C00FB68002200211C2000F0A1F91C2000F0FD
:100F5C00BAF900BF1037BD4680BD00BF001002407B
:100F6C0080B400AFFEE780B400AFFEE780B400AF02
:100F7C00FEE780B400AFFEE780B400AFFEE780B4BC
:100F8C0000AF00BFBD4680BC704780B400AF00BF4F
:100F9C00BD4680BC704780B400AF00BFBD4680BC6E
:100FAC00704780B500AF00F07FF800BF80BD000037
:100FBC0080B500AF024800F0DBFF00BF80BD00BF72
:100FCC00E000002080B400AF00BFBD4680BC70477D
:100FDC00FFF7F8FF0B480C490C4A002302E0D458E9
:100FEC00C4500433C4188C42F9D3094A094C002369
:100FFC0001E013600432A242FBD301F005FBFFF7C2
:10100C00C9FD70470000002074000020B0260008C5
:10101C00740000202C010020FEE7000080B500AF1A
:10102C00084B1B68074A43F010031360032000F0C1
:10103C0023F90F2000F008F8FFF73CFF00231846B7
:10104C0080BD00BF0020024080B582B000AF786048
:10105C00124B1A68124B1B7819464FF47A73B3FB78
:10106C00F1F3B2FBF3F3184600F03BF90346002B07
:10107C0001D001230EE07B680F2B0AD8002279687F
:10108C004FF0FF3000F003F9064A7B681360002331
:10109C0000E0012318460837BD4680BD68000020DB
:1010AC00700000206C00002080B400AF054B1B7852
:1010BC001A46054B1B681344034A136000BFBD4618
:1010CC0080BC7047700000202801002080B400AF65
:1010DC00024B1B681846BD4680BC70472801002097
:1010EC0080B485B000AF78607B6803F00703FB60C9
:1010FC000C4BDB68BB60BA684FF6FF031340BB6058
:10110C00FB681A02BB68134343F0BF6343F400331C
:10111C00BB60044ABB68D36000BF1437BD4680BCBB
:10112C00704700BF00ED00E080B400AF044BDB68FB
:10113C001B0A03F007031846BD4680BC704700BF6E
:10114C0000ED00E080B483B000AF0346FB7197F96B
:10115C000730002B0BDBFB7903F01F02064997F9D4
:10116C0007305B09012000FA02F241F8232000BF8E
:10117C000C37BD4680BC704700E100E080B483B002
:10118C0000AF03463960FB7197F90730002B0ADB7F
:10119C003B68DAB20C4997F907301201D2B20B4412
:1011AC0083F800230AE03B68DAB20849FB7903F0C4
:1011BC000F03043B1201D2B20B441A7600BF0C375A
:1011CC00BD4680BC704700BF00E100E000ED00E0D0
:1011DC0080B489B000AFF860B9607A60FB6803F046
:1011EC000703FB61FB69C3F10703042B28BF04232E
:1011FC00BB61FB690433062B02D9FB69033B00E09E
:10120C0000237B614FF0FF32BB6902FA03F3DA4330
:10121C00BB681A407B699A404FF0FF317B6901FA39
:10122C0003F3D9437B680B40134318462437BD4660
:10123C0080BC704780B582B000AF78607B68013BA2
:10124C00B3F1807F01D301230FE00A4A7B68013B95
:10125C0053600F214FF0FF30FFF790FF054B00223A
:10126C009A60044B07221A60002318460837BD46C3
:10127C0080BD00BF10E000E080B582B000AF7860A8
:10128C007868FFF72DFF00BF0837BD4680BD80B5DD
:10129C0086B000AF0346B9607A60FB7300237B61B4
:1012AC00FFF742FF78617A68B9687869FFF790FFB9
:1012BC00024697F90F3011461846FFF75FFF00BF43
:1012CC001837BD4680BD80B582B000AF0346FB71B8
:1012DC0097F907301846FFF735FF00BF0837BD46B2
:1012EC0080BD80B582B000AF78607868FFF7A2FF50
:1012FC00034618460837BD4680BD000080B48BB04D
:10130C0000AF7860396000237B6200233B6248E1C8
:10131C0001227B6A02FA03F3FB613B681B68FA69E2
:10132C001340BB61BA69FB699A4240F037813B6854
:10133C005B68A34A93425ED0A14A934275D8A14AF6
:10134C00934258D09F4A93426FD89F4A934252D0AF
:10135C009D4A934269D89D4A93424CD09B4A9342F2
:10136C0063D89B4A934246D0994A93425DD8122B3C
:10137C002AD8122B59D801A252F823F003140008D2
:10138C00DD130008EF1300083114000837140008AF
:10139C0037140008371400083714000837140008F5
:1013AC0037140008371400083714000837140008E5
:1013BC0037140008371400083714000837140008D5
:1013CC00E5130008F9130008824A934213D02CE06D
:1013DC003B68DB683B6229E03B68DB6804333B62BB
:1013EC0024E03B68DB6808333B621FE03B68DB684A
:1013FC000C333B621AE03B689B68002B02D1042340
:10140C003B6213E03B689B68012B05D108233B62D0
:10141C007B68FA691A6109E008233B627B68FA6908
:10142C005A6103E000233B6200E000BFBB69FF2B65
:10143C0001D87B6801E07B6804337B61BB69FF2BBF
:10144C0002D87B6A9B0002E07B6A083B9B003B61F5
:10145C007B691A680F213B6901FA03F3DB431A40DD
:10146C00396A3B6901FA03F31A437B691A603B68DA
:10147C005B6803F08053002B00F09080564B9B6907
:10148C00554A43F001039361534B9B6903F00103ED
:10149C00BB60BB68514A7B6A9B08023352F823300D
:1014AC00FB607B6A03F003039B000F2202FA03F339
:1014BC00DB43FA681340FB607B68494A93420DD0CA
:1014CC007B68484A934207D07B68474A934201D1D4
:1014DC00022304E0032302E0012300E000237A6AE4
:1014EC0002F0030292009340FA681343FB603B49FD
:1014FC007B6A9B080233FA6841F823203B685B68DF
:10150C0003F48013002B06D0384B9A683749BB691B
:10151C0013438B6006E0354B9A68BB69DB43334958
:10152C0013408B603B685B6803F40013002B06D000
:10153C002E4BDA682D49BB691343CB6006E02B4B6D
:10154C00DA68BB69DB4329491340CB603B685B68B5
:10155C0003F40033002B06D0244B5A682349BB6993
:10156C0013434B6006E0214B5A68BB69DB431F49B0
:10157C0013404B603B685B6803F48033002B06D050
:10158C001A4B1A681949BB6913430B6006E0174BD9
:10159C001A68BB69DB43154913400B607B6A013346
:1015AC007B623B681A687B6A22FA03F3002B7FF498
:1015BC00AFAE00BF00BF2C37BD4680BC704700BF2C
:1015CC000000321000003110000022100000211029
:1015DC000000121000001110001002400000014029
:1015EC0000080140000C01400010014000040140C3
:1015FC0080B485B000AF78600B467B807B689A68BE
:10160C007B881340002B02D00123FB7301E00023E5
:10161C00FB73FB7B18461437BD4680BC704780B407
:10162C0083B000AF78600B467B8013467B707B7871
:10163C00002B03D07A887B681A6103E07B881A043C
:10164C007B681A6100BF0C37BD4680BC704780B404
:10165C0085B000AF78600B467B807B68DB68FB60F5
:10166C007A88FB6813401A04FB68D9437B880B40CB
:10167C001A437B681A6100BF1437BD4680BC7047A3
:10168C0080B586B000AF78607B68002B01D1012358
:10169C006CE27B681B6803F00103002B00F0878071
:1016AC00924B5B6803F00C03042B0CD08F4B5B68E4
:1016BC0003F00C03082B12D18C4B5B6803F48033C2
:1016CC00B3F5803F0BD1894B1B6803F40033002B1F
:1016DC006CD07B685B68002B68D1012346E27B6889
:1016EC005B68B3F5803F06D1804B1B687F4A43F49F
:1016FC00803313602EE07B685B68002B0CD17B4B36
:10170C001B687A4A23F480331360784B1B68774A42
:10171C0023F4802313601DE07B685B68B3F5A02F76
:10172C000CD1724B1B68714A43F4802313606F4BCE
:10173C001B686E4A43F4803313600BE06B4B1B68E1
:10174C006A4A23F480331360684B1B68674A23F49E
:10175C00802313607B685B68002B13D0FFF7B6FC0B
:10176C00386108E0FFF7B2FC02463B69D31A642BE0
:10177C0001D90323FAE15D4B1B6803F40033002B02
:10178C00F0D014E0FFF7A2FC386108E0FFF79EFCF4
:10179C0002463B69D31A642B01D90323E6E1534B70
:1017AC001B6803F40033002BF0D100E000BF7B6812
:1017BC001B6803F00203002B63D04C4B5B6803F0F7
:1017CC000C03002B0BD0494B5B6803F00C03082B6C
:1017DC001CD1464B5B6803F48033002B16D1434B72
:1017EC001B6803F00203002B05D07B681B69012BDF
:1017FC0001D00123BAE13D4B1B6823F0F8027B6852
:10180C005B69DB00394913430B603AE07B681B6969
:10181C00002B20D0364B01221A60FFF757FC3861A1
:10182C0008E0FFF753FC02463B69D31A022B01D99F
:10183C0003239BE12D4B1B6803F00203002BF0D01C
:10184C002A4B1B6823F0F8027B685B69DB00274995
:10185C0013430B6015E0264B00221A60FFF736FC91
:10186C00386108E0FFF732FC02463B69D31A022BC1
:10187C0001D903237AE11D4B1B6803F00203002BF3
:10188C00F0D17B681B6803F00803002B3AD07B680F
:10189C009B69002B19D0174B01221A60FFF716FC1D
:1018AC00386108E0FFF712FC02463B69D31A022BA1
:1018BC0001D903235AE10D4B5B6A03F00203002BA1
:1018CC00F0D0012000F09AFA1CE00A4B00221A60BA
:1018DC00FFF7FCFB38610FE0FFF7F8FB02463B69B2
:1018EC00D31A022B08D9032340E100BF0010024099
:1018FC0000004242800442429E4B5B6A03F00203AA
:10190C00002BE9D17B681B6803F00403002B00F06B
:10191C00A6800023FB75974BDB6903F08053002BEB
:10192C000DD1944BDB69934A43F08053D361914BB7
:10193C00DB6903F08053BB60BB680123FB758E4BE6
:10194C001B6803F48073002B18D18B4B1B688A4ADD
:10195C0043F480731360FFF7B9FB386108E0FFF7BD
:10196C00B5FB02463B69D31A642B01D90323FDE076
:10197C00814B1B6803F48073002BF0D07B68DB6811
:10198C00012B06D17B4B1B6A7A4A43F0010313628D
:10199C002DE07B68DB68002B0CD1764B1B6A754AFB
:1019AC0023F001031362734B1B6A724A23F0040386
:1019BC0013621CE07B68DB68052B0CD16D4B1B6A3A
:1019CC006C4A43F0040313626A4B1B6A694A43F086
:1019DC00010313620BE0674B1B6A664A23F0010399
:1019EC001362644B1B6A634A23F0040313627B6823
:1019FC00DB68002B15D0FFF769FB38610AE0FFF7B5
:101A0C0065FB02463B69D31A41F28832934201D9F5
:101A1C000323ABE0574B1B6A03F00203002BEED001
:101A2C0014E0FFF753FB38610AE0FFF74FFB024667
:101A3C003B69D31A41F28832934201D9032395E0D2
:101A4C004C4B1B6A03F00203002BEED1FB7D012BE8
:101A5C0005D1484BDB69474A23F08053D3617B683F
:101A6C00DB69002B00F08180424B5B6803F00C03B8
:101A7C00082B61D07B68DB69022B46D13F4B0022DF
:101A8C001A60FFF723FB386108E0FFF71FFB0246E3
:101A9C003B69D31A022B01D9032367E0354B1B6832
:101AAC0003F00073002BF0D17B681B6AB3F5803F09
:101ABC0008D1304B5B6823F400327B689B682D495E
:101ACC0013434B602B4B5B6823F474127B68196ACD
:101ADC007B685B6A0B43274913434B60274B0122FE
:101AEC001A60FFF7F3FA386108E0FFF7EFFA0246E5
:101AFC003B69D31A022B01D9032337E01D4B1B681A
:101B0C0003F00073002BF0D02FE01C4B00221A6066
:101B1C00FFF7DCFA386108E0FFF7D8FA02463B69B8
:101B2C00D31A022B01D9032320E0124B1B6803F0BC
:101B3C000073002BF0D118E07B68DB69012B01D11D
:101B4C00012313E00B4B5B68FB60FB6803F48032F2
:101B5C007B681B6A9A4206D1FB6803F470127B689F
:101B6C005B6A9A4201D0012300E000231846183723
:101B7C00BD4680BD00100240007000406000424233
:101B8C0080B584B000AF786039607B68002B01D1E0
:101B9C000123D0E06A4B1B6803F007033A689A42B2
:101BAC0010D9674B1B6823F0070265493B68134348
:101BBC000B60634B1B6803F007033A689A4201D031
:101BCC000123B8E07B681B6803F00203002B20D0D4
:101BDC007B681B6803F00403002B05D0594B5B6832
:101BEC00584A43F4E06353607B681B6803F00803B6
:101BFC00002B05D0534B5B68524A43F4605353603F
:101C0C00504B5B6823F0F0027B689B684D49134393
:101C1C004B607B681B6803F00103002B40D07B6892
:101C2C005B68012B07D1474B1B6803F40033002B77
:101C3C0015D101237FE07B685B68022B07D1414BF8
:101C4C001B6803F00073002B09D1012373E03D4B9B
:101C5C001B6803F00203002B01D101236BE0394B0D
:101C6C005B6823F003027B685B68364913434B6067
:101C7C00FFF72CFAF8600AE0FFF728FA0246FB6837
:101C8C00D31A41F28832934201D9032353E02D4BEE
:101C9C005B6803F00C027B685B689B009A42EBD19B
:101CAC00274B1B6803F007033A689A4210D2244B67
:101CBC001B6823F0070222493B6813430B60204B3F
:101CCC001B6803F007033A689A4201D0012332E003
:101CDC007B681B6803F00403002B08D0194B5B686E
:101CEC0023F4E0627B68DB68164913434B607B6826
:101CFC001B6803F00803002B09D0124B5B6823F41C
:101D0C0060527B681B69DB000E4913434B6000F08B
:101D1C0021F802460B4B5B681B0903F00F030A49C1
:101D2C00CB5C22FA03F3094A1360094B1B68184673
:101D3C00FFF78AF9002318461037BD4680BD00BF57
:101D4C000020024000100240842600086800002099
:101D5C006C00002080B487B000AF0023FB60002330
:101D6C00BB6000237B6100237B6000233B611E4B27
:101D7C005B68FB60FB6803F00C03042B02D0082BA0
:101D8C0003D027E0194B3B6127E0FB689B0C03F069
:101D9C000F03174AD35C7B60FB6803F48033002B82
:101DAC0010D0114B5B685B0C03F00103114AD35C40
:101DBC00BB607B680D4A02FB03F2BB68B2FBF3F31A
:101DCC007B6104E07B680C4A02FB03F37B617B695B
:101DDC003B6102E0054B3B6100BF3B6918461C3779
:101DEC00BD4680BC704700BF0010024000127A0054
:101DFC0094260008A426000800093D0080B485B094
:101E0C0000AF78600A4B1B680A4AA2FB03235B0AEB
:101E1C007A6802FB03F3FB6000BFFB685A1EFA6092
:101E2C00002BF9D100BF00BF1437BD4680BC7047F2
:101E3C0068000020D34D621080B582B000AF78608E
:101E4C007B68002B01D1012341E07B6893F83D3086
:101E5C00DBB2002B06D17B68002283F83C2078682B
:101E6C00FFF75AF87B68022283F83D207B681A68DA
:101E7C007B6804331946104600F06EFA7B68012229
:101E8C0083F846207B68012283F83E207B68012280
:101E9C0083F83F207B68012283F840207B68012275
:101EAC0083F841207B68012283F842207B68012261
:101EBC0083F843207B68012283F844207B6801224D
:101ECC0083F845207B68012283F83D2000231846C7
:101EDC000837BD4680BD000080B485B000AF786087
:101EEC007B6893F83D30DBB2012B01D0012335E048
:101EFC007B68022283F83D207B681B68DA687B686C
:101F0C001B6842F00102DA607B681B68164A934238
:101F1C0009D07B681B68B3F1804F04D07B681B68C9
:101F2C00124A934211D17B681B689B6803F007032C
:101F3C00FB60FB68062B10D07B681B681A687B68FB
:101F4C001B6842F001021A6007E07B681B681A6884
:101F5C007B681B6842F001021A6000231846143794
:101F6C00BD4680BC704700BF002C014000040040FF
:101F7C0080B582B000AF78607B681B681B6903F08A
:101F8C000203022B22D17B681B68DB6803F002037F
:101F9C00022B1BD17B681B686FF002021A617B68F5
:101FAC0001221A777B681B689B6903F00303002BE3
:101FBC0003D0786800F0B4F905E0786800F0A7F970
:101FCC00786800F0B6F97B6800221A777B681B688A
:101FDC001B6903F00403042B22D17B681B68DB68AC
:101FEC0003F00403042B1BD17B681B686FF0040205
:101FFC001A617B6802221A777B681B689B6903F461
:10200C004073002B03D0786800F08AF905E07868FB
:10201C0000F07DF9786800F08CF97B6800221A7763
:10202C007B681B681B6903F00803082B22D17B68B3
:10203C001B68DB6803F00803082B1BD17B681B684B
:10204C006FF008021A617B6804221A777B681B68A0
:10205C00DB6903F00303002B03D0786800F060F910
:10206C0005E0786800F053F9786800F062F97B6855
:10207C0000221A777B681B681B6903F01003102B76
:10208C0022D17B681B68DB6803F01003102B1BD17B
:10209C007B681B686FF010021A617B6808221A7744
:1020AC007B681B68DB6903F44073002B03D07868F2
:1020BC0000F036F905E0786800F029F9786800F04E
:1020CC0038F97B6800221A777B681B681B6903F060
:1020DC000103012B0ED17B681B68DB6803F0010345
:1020EC00012B07D17B681B686FF001021A617868BD
:1020FC00FEF77AFE7B681B681B6903F08003802B5C
:10210C000ED17B681B68DB6803F08003802B07D142
:10211C007B681B686FF080021A61786800F06BFABC
:10212C007B681B681B6903F04003402B0ED17B6856
:10213C001B68DB6803F04003402B07D17B681B68EE
:10214C006FF040021A61786800F0FCF87B681B683D
:10215C001B6903F02003202B0ED17B681B68DB6806
:10216C0003F02003202B07D17B681B686FF0200243
:10217C001A61786800F036FA00BF0837BD4680BD9A
:10218C0080B584B000AF786039600023FB737B6846
:10219C0093F83C30012B01D10223B4E07B6801227F
:1021AC0083F83C207B68022283F83D207B681B6807
:1021BC009B68BB60BB6823F07703BB60BB6823F4F0
:1021CC007F43BB607B681B68BA689A603B681B687E
:1021DC00B3F5005F3ED0B3F5005F00F28780B3F536
:1021EC00805F00F08680B3F5805F7FD8702B1AD0AB
:1021FC00702B7BD8602B50D0602B77D8502B3CD0D9
:10220C00502B73D8402B58D0402B6FD8302B64D028
:10221C00302B6BD8202B60D0202B67D8002B5CD0B8
:10222C00102B5AD062E07B6818683B6899683B6851
:10223C005A683B68DB6800F05EF97B681B689B683A
:10224C00BB60BB6843F07703BB607B681B68BA68F4
:10225C009A604FE07B6818683B6899683B685A68DD
:10226C003B68DB6800F047F97B681B689A687B6801
:10227C001B6842F480429A603CE07B6818683B68BB
:10228C0059683B68DB681A4600F0BEF87B681B682F
:10229C005021184600F015F92CE07B6818683B6853
:1022AC0059683B68DB681A4600F0DCF87B681B68F1
:1022BC006021184600F005F91CE07B6818683B6843
:1022CC0059683B68DB681A4600F09EF87B681B680F
:1022DC004021184600F0F5F80CE07B681A683B6862
:1022EC001B681946104600F0ECF803E00123FB7361
:1022FC0000E000BF7B68012283F83D207B68002250
:10230C0083F83C20FB7B18461037BD4680BD80B45B
:10231C0083B000AF786000BF0C37BD4680BC7047FF
:10232C0080B483B000AF786000BF0C37BD4680BC72
:10233C00704780B483B000AF786000BF0C37BD46E7
:10234C0080BC704780B483B000AF786000BF0C379E
:10235C00BD4680BC7047000080B485B000AF78608B
:10236C0039607B681B68FB607B68254A934207D009
:10237C007B68B3F1804F03D07B68224A934208D12B
:10238C00FB6823F07003FB603B685B68FA681343DF
:10239C00FB607B681A4A934207D07B68B3F1804F8D
:1023AC0003D07B68174A934208D1FB6823F440732F
:1023BC00FB603B68DB68FA681343FB60FB6823F047
:1023CC0080023B685B691343FB607B68FA681A60A8
:1023DC003B689A687B68DA623B681A687B689A6229
:1023EC007B68074A934203D13B681A697B681A637E
:1023FC007B6801225A6100BF1437BD4680BC704710
:10240C00002C01400004004080B487B000AFF8609D
:10241C00B9607A60FB681B6A7B61FB681B6A23F0FE
:10242C000102FB681A62FB689B693B613B6923F004
:10243C00F0033B617B681B013A6913433B617B6989
:10244C0023F00A037B617A69BB6813437B61FB68E9
:10245C003A699A61FB687A691A6200BF1C37BD46FB
:10246C0080BC704780B487B000AFF860B9607A6008
:10247C00FB681B6A7B61FB681B6A23F01002FB681C
:10248C001A62FB689B693B613B6923F470433B61B7
:10249C007B681B033A6913433B617B6923F0A00300
:1024AC007B61BB681B017A6913437B61FB683A69EA
:1024BC009A61FB687A691A6200BF1C37BD4680BC02
:1024CC00704780B485B000AF786039607B689B68DA
:1024DC00FB60FB6823F07003FB603A68FB681343F6
:1024EC0043F00703FB607B68FA689A6000BF1437FF
:1024FC00BD4680BC704780B487B000AFF860B9604F
:10250C007A603B60FB689B687B617B6923F47F434B
:10251C007B613B681A027B681A43BB6813437A6978
:10252C0013437B61FB687A699A6000BF1C37BD4618
:10253C0080BC704780B485B000AF786039607B6830
:10254C0093F83C30012B01D1022341E07B6801223E
:10255C0083F83C207B68022283F83D207B681B6853
:10256C005B68FB607B681B689B68BB60FB6823F047
:10257C007003FB603B681B68FA681343FB607B6865
:10258C001B68FA685A607B681B68144A934209D02E
:10259C007B681B68B3F1804F04D07B681B68104AC2
:1025AC0093420CD1BB6823F08003BB603B685B6833
:1025BC00BA681343BB607B681B68BA689A607B6817
:1025CC00012283F83D207B68002283F83C20002305
:1025DC0018461437BD4680BC704700BF002C014024
:1025EC000004004080B483B000AF786000BF0C37AB
:1025FC00BD4680BC704780B483B000AF786000BF2C
:10260C000C37BD4680BC704770B500260C4D0D4C88
:10261C00641BA410A64209D100F022F800260A4D32
:10262C000A4C641BA410A64205D170BD55F8043B9E
:10263C0098470136EEE755F8043B98470136F2E728
:10264C00A8260008A8260008A8260008AC26000822
:10265C0003460244934200D1704703F8011BF9E78B
:10266C00F8B500BFF8BC08BC9E467047F8B500BF73
:08267C00F8BC08BC9E46704743
:10268400000000000000000001020304060708091E
:1026940002030405060708090A0B0C0D0E0F10109F
:0426A400010200002F
:0426A80031010008F4
:0426AC000D01000814
:1026B00088130000B80B0000401F0000010000005C
:1026C0000000000000000000010000000000000009
:1026D00000000000010000000000000000000000F9
:1026E000010000000000000000000000C800000021
:1026F000C0F9A4B0999282F88090000064000000B4
:102700006400000005000000060000000700000053
:10271000080000000A0000000024F400100000007F
:0427200001000000B4
:0400000508000FDD03
:00000001FF
